S0140000656A656D706C6F6C616230342E7372656391
S11300000C9434000C9446000C9446000C94460066
S11300100C9446000C9446000C9446000C94460044
S11300200C9446000C9446000C9446000C94460034
S11300300C9446000C9446000C9446000C94460024
S11300400C9446000C9446000C9446000C94460014
S11300500C9446000C9446000C9446000C94460004
S11300600C9446000C94460011241FBECFEFD8E038
S1130070DEBFCDBF21E0A0E0B1E001C01D92A430FD
S1130080B207E1F70E94E8000C945C010C940000B4
S11300900F931F93CF938B019C01C42F87B18F7C47
S11300A087B9443051F0403189F04130B9F4E9EB7B
S11300B0F0E080818C7F808311C0E9EBF0E08081E7
S11300C08D7F808380818160808308C0E9EBF0E0CC
S11300D080818E7F808380818160808360E074E290
S11300E084EF90E0A90198010E943A01CA01B90184
S11300F060517109810991094C2F50E09A01220F36
S1130100331F032E000C440B550B0E943A0120931D
S1130110B800ECEBF0E0808184608083CF911F9184
S11301200F91089584EA8093BC008091BC008823D9
S1130130E4F7089584E98093BC0008958093BB009C
S113014084E88093BC008091BC008823E4F780910C
S1130150B900887F883131F0883231F0803429F455
S113016081E0089581E0089581E00895882324F4CE
S11301709BB190629BB903C09BB19F7D9BB986FFE5
S113018004C09BB190619BB903C09BB19F7E9BB996
S113019085FF04C09BB198609BB903C09BB1977F56
S11301A09BB984FF04C08BB184608BB908958BB173
S11301B08B7F8BB9089587B18F6087B98AB18C63BF
S11301C08AB980E00E94B60084B1806284B908953F
S11301D041E060EA76E881E090E00E9448000E94F5
S11301E0DB0085B1806285B90E94920080E680932D
S11301F002010E949E0080930301813011F00E944D
S11302009A0082E50E949E000E949A002FE986E8E7
S113021091E0215080409040E1F700C0000085B19A
S11302208F7D85B90E94920081E6809302010E942D
S11302309E0080930301813011F00E949A0084E8AB
S11302408093BC008091BC008823E4F78091BB00BC
S1130250809300010E949A00809100010E94B600E0
S11302602FE986E891E0215080409040E1F700C0FA
S11302700000B7CFA1E21A2EAA1BBB1BFD010DC0C3
S1130280AA1FBB1FEE1FFF1FA217B307E407F50742
S113029020F0A21BB30BE40BF50B661F771F881F1E
S11302A0991F1A9469F760957095809590959B01B4
S10F02B0AC01BD01CF010895F894FFCF0C
S9030000FC
